:100000000C945D000C9485000C9485000C94850084
:100010000C9485000C9485000C9485000C9485004C
:100020000C9485000C9485000C9485000C9485003C
:100030000C9485000C9485000C9485000C9485002C
:100040000C940E050C9485000C94DC040C94B604FE
:100050000C9485000C9485000C9485000C9485000C
:100060000C9458050C948500000000002400270023
:100070002A0000000000250028002B0004040404CE
:100080000404040402020202020203030303030342
:10009000010204081020408001020408102001021F
:1000A00004081020000000080002010000030407FB
:1000B0000000000000000000770611241FBECFEFF3
:1000C000D8E0DEBFCDBF11E0A0E0B1E0EEEDF1E1A0
:1000D00002C005900D92AE39B107D9F723E0AEE921
:1000E000B1E001C01D92A131B207E1F710E0CDE50A
:1000F000D0E004C02197FE010E94E708CC35D1076B
:10010000C9F70E94C0060C94ED080C940000EBE5C2
:10011000F2E0A089B18982E08C93A485B5851C9218
:10012000A685B7858FEC8C93108EA489B58986E05F
:100130008C93A289B3898C9180618C93A289B389B5
:100140008C9188608C93A289B3898C9180688C9300
:100150000288F389E02D80818F7D80830895089542
:100160000895AF92BF92CF92DF92EF92FF920F93DA
:100170001F93CF93DF936C017B018B01040F151F3D
:10018000EB015E01AE18BF08C017D10759F06991A5
:10019000D601ED91FC910190F081E02DC601099509
:1001A000892B79F7C501DF91CF911F910F91FF90B6
:1001B000EF90DF90CF90BF90AF900895FC01538DEA
:1001C000448D252F30E0842F90E0821B930B541731
:1001D00010F0CF96089501970895FC01918D828DBE
:1001E000981761F0A28DAE0FBF2FB11D5D968C9157
:1001F000928D9F5F9F73928F90E008958FEF9FEF96
:100200000895FC01918D828D981731F0828DE80F51
:10021000F11D858D90E008958FEF9FEF0895FC010B
:10022000918D228D892F90E0805C9F4F821B9109D8
:100230008F73992708958BE592E00E940F0121E0CA
:10024000892B09F420E0822F089580E090E0892B2B
:1002500029F00E941B0181110C9400000895FC01FB
:10026000A48DA80FB92FB11DA35ABF4F2C91848D17
:1002700090E001968F739927848FA689B7892C9374
:10028000A089B1898C91837080648C93938D848DC7
:10029000981306C00288F389E02D80818F7D8083CA
:1002A0000895EF92FF920F931F93CF93DF93EC018A
:1002B00081E0888F9B8D8C8D98131AC0E889F9890D
:1002C000808185FF15C09FB7F894EE89FF89608310
:1002D000E889F98980818370806480839FBF81E091
:1002E00090E0DF91CF911F910F91FF90EF900895D3
:1002F000F62E0B8D10E00F5F1F4F0F731127E02EAE
:100300008C8D8E110CC00FB607FCFACFE889F989E5
:10031000808185FFF5CFCE010E942F01F1CFEB8DBB
:10032000EC0FFD2FF11DE35AFF4FF0829FB7F894B9
:100330000B8FEA89FB8980818062CFCFCF93DF93D7
:10034000EC01888D8823B9F0AA89BB89E889F989ED
:100350008C9185FD03C0808186FD0DC00FB607FC22
:10036000F7CF8C9185FFF2CF808185FFEDCFCE0155
:100370000E942F01E9CFDF91CF91089590E0FC0119
:10038000EC55FF4F2491FC01E057FF4F3491FC01E5
:10039000E458FF4FE491EE23C9F0222339F02330D3
:1003A00001F1A8F4213019F1223029F1F0E0EE0F2B
:1003B000FF1FEE58FF4FA591B4918FB7F894EC91C1
:1003C000611126C030953E233C938FBF089527309E
:1003D000A9F02830C9F0243049F7809180008F7D42
:1003E00003C0809180008F7780938000DFCF84B539
:1003F0008F7784BDDBCF84B58F7DFBCF8091B0003C
:100400008F778093B000D2CF8091B0008F7DF9CFED
:100410003E2BDACFCF93DF9390E0FC01E057FF4F04
:10042000249184589F4FFC0184918823D1F090E05F
:10043000880F991FFC01E859FF4FA591B491FC0169
:10044000EE58FF4FC591D49161110EC09FB7F8943B
:100450008C91E22FE0958E238C932881E223E88310
:100460009FBFDF91CF9108958FB7F894EC91E22B65
:10047000EC938FBFF6CF8E3008F08E50877080647B
:1004800080937C0080917A00806480937A008091D0
:100490007A0086FDFCCF80917800909179000895D4
:1004A0003FB7F89480914C0290914D02A0914E027A
:1004B000B0914F0226B5A89B05C02F3F19F00196B9
:1004C000A11DB11D3FBFBA2FA92F982F8827BC01AE
:1004D000CD01620F711D811D911D42E0660F771FD6
:1004E000881F991F4A95D1F708958F929F92AF92D6
:1004F000BF92CF92DF92EF92FF924B015C010E947C
:1005000050026B017C010E9450026C197D098E091A
:100510009F09683E734081059105A8F321E0821A86
:100520009108A108B10888EEC80E83E0D81EE11C2E
:10053000F11C81149104A104B10429F7FF90EF90FC
:10054000DF90CF90BF90AF909F908F90089585EDF2
:100550008093BC008091BC0084FDFCCF10925602B9
:10056000089520910002260F3327331F21323105D1
:10057000ECF420915602FC0190E080E0243069F018
:1005800082E00895A09100022191AC0140525E4F9B
:10059000A40FB52FB11D2C930196861798F3809167
:1005A0000002680F6093000280E0089581E00895E2
:1005B0000895E0915A0280915902E81730F4F0E072
:1005C000E054FE4F808190E008958FEF9FEF0895F3
:1005D00090915A02809159022FEF3FEF981748F4FB
:1005E000E92FF0E0E054FE4F208130E09F5F9093D0
:1005F0005A02C90108958091590290915A02891BAB
:10060000990B0895CF92DF92EF92FF920F931F9371
:10061000CF93DF937C01CB018A012091BF0122237C
:1006200089F0EB016B01C40ED51ECC15DD0569F018
:100630006991D701ED91FC910190F081E02DC70106
:100640000995F3CF642F0E94B102C801DF91CF91C9
:100650001F910F91FF90EF90DF90CF900895CF936F
:10066000DF931F92CDB7DEB769832091BF012223AC
:10067000F9F020915702203258F021E030E0FC01DF
:100680003383228390E080E00F90DF91CF91089533
:1006900080915802E82FF0E0E156FE4F9981908357
:1006A0008F5F809358028093570281E090E0ECCFF7
:1006B00061E0CE0101960E94B102F7CFCF93FC0119
:1006C000C48121E02093BF01C0939E011092580283
:1006D000109257028485682B88EF92E00E942F03C6
:1006E00090915702913208F03FC0809156028111DB
:1006F000FCCF82E08093560281E0809355028FEF19
:10070000809323021092450290934402AFE9B1E036
:10071000E4E2F2E080E098132FC01092460280914C
:100720004602CC0FC82BC093460280915402813000
:1007300039F510925402809146028093BB0080915B
:10074000BC0083FDF8CF85EC8093BC0080915602FD
:100750008230E1F3809123028F3F31F080912302B8
:10076000803211F0809123021092580210925702A9
:100770001092BF01CF9108952D9121938F5FCBCF20
:1007800085EEE2CF089590E080E008950F931F93E7
:10079000CF938C01C62F0E945E036C2F6460C8014A
:1007A0000E945E036C2F6B7FC8010E945E0383EC86
:1007B00090E00197F1F7CF911F910F9108950F935A
:1007C0001F93CF93DF938C01D62FC42F607F642BB0
:1007D0000E94C60380E1D89FB00111246C2BC80190
:1007E000DF91CF911F910F910C94C603CF93DF93AC
:1007F000CDB7DEB728970FB6F894DEBF0FBECDBFDA
:1008000098E0E0E0F1E0DE01119601900D929A95FA
:10081000E1F790910C03981708F48FEF90E0880FA0
:10082000991F21E030E02C0F3D1F820F931FFC0128
:100830006081606840E084E093E028960FB6F89409
:10084000DEBF0FBECDBFDF91CF910C94DF0341E03F
:100850000E94DF0381E090E00895FB0101900020F9
:10086000E9F73197AF01461B570BDC01ED91FC9185
:100870000280F381E02D09948F929F92AF92BF92F4
:100880000F931F93CF93DF93CDB7DEB7A1970FB62A
:10089000F894DEBF0FBECDBF19A2423008F44AE083
:1008A0008E010F5D1F4F842E912CB12CA12CA50120
:1008B00094010E94A708E62FB901CA01EA3004F5A5
:1008C000E05DD801EE938D01232B242B252B79F7A6
:1008D00090E080E0109729F0BD018BE592E00E9446
:1008E0002D04A1960FB6F894DEBF0FBECDBFDF91E9
:1008F000CF911F910F91BF90AF909F908F900895CF
:10090000E95CDFCFCF92DF92EF92FF92CF93DF933C
:100910006B017C016DE28BE592E00E945101EC01DC
:1009200066277727CB016C197D098E099F094AE05C
:100930000E943C048C0F9D1FDF91CF91FF90EF90A0
:10094000DF90CF900895CF93DF93BC018BE592E0C9
:100950000E942D04EC0168E371E08BE592E00E94B7
:100960002D048C0F9D1FDF91CF9108951F920F9240
:100970000FB60F9211242F933F934F935F936F9372
:100980007F938F939F93AF93BF93EF93FF938BE5E9
:1009900092E00E942F01FF91EF91BF91AF919F9143
:1009A0008F917F916F915F914F913F912F910F9018
:1009B0000FBE0F901F9018951F920F920FB60F92B7
:1009C00011242F938F939F93EF93FF93E0916B02EA
:1009D000F0916C028081E0917102F091720282FDCF
:1009E0001BC09081809174028F5F8F73209175027C
:1009F000821741F0E0917402F0E0E55AFD4F958FC7
:100A000080937402FF91EF919F918F912F910F909E
:100A10000FBE0F901F9018958081F4CF1F920F92F8
:100A20000FB60F9211242F933F938F939F93AF9301
:100A3000BF938091480290914902A0914A02B091DF
:100A40004B023091470223E0230F2D3758F50196D2
:100A5000A11DB11D20934702809348029093490243
:100A6000A0934A02B0934B0280914C0290914D02A8
:100A7000A0914E02B0914F020196A11DB11D80932D
:100A80004C0290934D02A0934E02B0934F02BF913F
:100A9000AF919F918F913F912F910F900FBE0F902B
:100AA0001F90189526E8230F0296A11DB11DD2CFE5
:100AB0001F920F920FB60F9211242F933F934F93D3
:100AC0005F936F937F938F939F93AF93BF93EF93B6
:100AD000FF938091B900887F803609F44AC0F0F511
:100AE000883209F4A7C018F5803109F49BC0B8F426
:100AF000882309F4F9C0883009F494C0FF91EF917C
:100B0000BF91AF919F918F917F916F915F914F9125
:100B10003F912F910F900FBE0F901F901895883125
:100B200009F488C0803251F78093230214C08034C6
:100B300009F49DC040F48033B9F38833F9F680930B
:100B4000230285ECB0C0803509F485C0883509F4EE
:100B500096C0883499F60E94A702D0CF883909F44C
:100B60008CC038F5883729F050F4883611F080377A
:100B700029F683E0809356021092220257C08838EB
:100B800009F47BC0803919F0803809F0B7CF809123
:100B90002202803208F071C0E091220281E08E0FC3
:100BA000809322028091BB00F0E0EE5FFD4F8083D6
:100BB0003DC0803B39F0E0F4803A09F479C0883ACE
:100BC00009F09CCF84E080935602109201021092AB
:100BD0000002E0915202F0915302099580910002C7
:100BE00081110FC081E0809300021092E00109C0E2
:100BF000803C09F4A6CF883C09F4A3CF883B09F0D8
:100C00007DCFE091010281E08E0F80930102F0E040
:100C1000E052FE4F80818093BB0090910102809151
:100C2000000229C0809146028093BB0085EC80932E
:100C3000BC0064CF9091450280914402981758F50A
:100C4000E091450281E08E0F80934502F0E0EC5D7B
:100C5000FD4F8081E9CFE091450281E08E0F8093C6
:100C600045028091BB00F0E0EC5DFD4F80839091E8
:100C70004502809144029817C8F285E8D8CFE091E8
:100C8000450281E08E0F809345028091BB00F0E029
:100C9000EC5DFD4F80838091550281115CCF81E036
:100CA0008093540284EA8093BC001092560226CFAF
:100CB00085EC8093BC001092560280912202803213
:100CC00030F4E0912202F0E0EE5FFD4F108260917F
:100CD000220270E0E0915002F091510282E092E035
:100CE0000995109222020ACF1092230234CFEBE52D
:100CF000F2E01382128288EE93E0A0E0B0E08483F9
:100D00009583A683B7832CE031E03183208325ECE3
:100D100030E03587248724EC30E03787268720ECC5
:100D200030E0318B208B21EC30E0338B228B22ECB6
:100D300030E0358B248B26EC30E0378B268B118E00
:100D4000128E138E148EE8EFF2E0138212828483E7
:100D50009583A683B7838EE191E091838083E4E05D
:100D6000F3E01382128280E391E091838083118605
:100D700087E2848380E1828782E0838714860895F6
:100D8000789484B5826084BD84B5816084BD85B566
:100D9000826085BD85B5816085BD80916E00816072
:100DA00080936E0010928100809181008260809318
:100DB000810080918100816080938100809180001A
:100DC0008160809380008091B10084608093B10045
:100DD0008091B00081608093B00080917A0084603F
:100DE00080937A0080917A00826080937A0080916B
:100DF0007A00816080937A0080917A008068809385
:100E00007A001092C1000E9487008BE391E00E945B
:100E1000A30410925A021092590210925802109292
:100E200057021092560281E08093550210925402AC
:100E300061E082E10E94BE0161E083E10E94BE01A7
:100E40008091B9008E7F8093B9008091B9008D7F29
:100E50008093B90088E48093B80085E48093BC0057
:100E60008FEA90E0909353028093520280EB90E0DF
:100E700090935102809350021092090380910F03C6
:100E8000823018F098E09093090380930C0362E39A
:100E900070E080E090E00E9475026091100384E0B1
:100EA00093E00E945E0368EE73E080E090E00E94B1
:100EB000750260E384E093E00E94C603CBE4D6E4CD
:100EC000CE010197F1F760E384E093E00E94C6034E
:100ED0002197F1F760E384E093E00E94C60383E585
:100EE00092E00197F1F760E284E093E00E94C6038C
:100EF00060910903606240E084E093E00E94DF03B8
:100F000084E080930A0340E06CE084E093E00E9478
:100F1000DF0340E061E084E093E00E94DF038BE3C5
:100F20009FE10197F1F780910D03882319F080E08C
:100F30000E94F60382E080930B0340E066E084E0C9
:100F400093E00E94DF0340E062E084E093E00E94CF
:100F5000DF038BE39FE10197F1F788E080931003B3
:100F600060E084E093E00E945E030E94870061E0FD
:100F700082E00E940A0261E08CE00E940A0261E0C5
:100F80008BE00E940A0260E080E00E940A0288244E
:100F90008A9483E0982EA12CB12CC0E0D0E084E4A8
:100FA00091E00E94A3048EE00E943B029C01ACE908
:100FB000BFEF0E94D808A50194010E94880869012A
:100FC0007A0184E6C80ED11CE11CF11C86016EE496
:100FD00071E08BE592E00E942D04F7FE6AC0C70124
:100FE000B6010E9482048EE591E00E94A30480E095
:100FF0000E943B027C0161E671E08BE592E00E9479
:101000002D04B7010F2C000C880B990B97FF57C0CC
:101010000E94820468E371E08BE592E00E942D0457
:1010200081E9E81681E0F8060CF44DC061E08CE03F
:101030000E94BE0160E08BE00E94BE0164E670E0A9
:1010400080E090E00E947502093211050CF041C069
:1010500061E082E00E94BE0180E00E94F6036AE641
:1010600071E084E093E00E942D046AE671E08BE574
:1010700092E00E942D0481E00E94F60366E771E091
:1010800084E093E00E942D0486E791E00E94A3048F
:1010900068E873E180E090E00E947502209709F40F
:1010A0007ECF0E941B01882309F479CF0E940000A3
:1010B00076CF4AE0C701B6010E943C0494CF4AE0D3
:1010C0000E943C04A7CF60E08CE00E94BE0161E07A
:1010D000B2CF60E082E00E94BE0180E00E94F60391
:1010E00064E871E084E093E00E942D0464E871E01C
:1010F0008BE592E00E942D0481E00E94F60360E9F6
:1011000071E084E093E00E942D0480E991E0BECF7D
:10111000052E97FB1EF400940E949F0857FD07D0F0
:101120000E94A70807FC03D04EF40C949F0850952A
:101130004095309521953F4F4F4F5F4F08959095C3
:101140008095709561957F4F8F4F9F4F0895A1E2D5
:101150001A2EAA1BBB1BFD010DC0AA1FBB1FEE1F31
:10116000FF1FA217B307E407F50720F0A21BB30B7C
:10117000E40BF50B661F771F881F991F1A9469F7F8
:1011800060957095809590959B01AC01BD01CF0154
:101190000895A29FB001B39FC001A39F700D811D50
:1011A0001124911DB29F700D811D1124911D089570
:1011B0000E94C908332312F48A1B9B0B0C94E2088B
:1011C0000E94C908B7FF0895821B930B0895EE0F84
:0E11D000FF1F0590F491E02D0994F894FFCFD5
:1011DE000000400014005400000000005101B10056
:1011EE00DE009E010F01ED000101000000002F0343
:1011FE000203C303D802FB02E802D902000000007A
:10120E002704B100C303C2030D0A00537461727444
:10121E00696E670052554E4E494E47202100536F5E
:10122E00696C206D6F6973747572653A20002025A4
:10123E000050696E2041303A20002050756D6220BA
:10124E00206F6E2020004D6F697374757265203C9F
:10125E00203430002050756D62206F6666202000AD
:0E126E004D6F697374757265203E2034300038
:00000001FF
